:100000000C9435000C945D000C945D000C945D0024
:100010000C945D000C945D000C945D000C945D00EC
:100020000C945D000C945D000C945D000C945D00DC
:100030000C945D000C945D000C945D000C945D00CC
:100040000C9419020C945D000C94E7010C94C1010E
:100050000C945D000C945D000C945D000C945D00AC
:100060000C945D000C945D00C90311241FBECFEFFA
:10007000D8E0DEBFCDBF21E0A6E2B1E001C01D9215
:10008000A03DB207E1F711E0A0E0B1E0E2EBFCE057
:1000900002C005900D92A632B107D9F710E0C5E372
:1000A000D0E004C02197FE010E945F04C433D10751
:1000B000C9F70E9463020C9457060C940000AF929B
:1000C000BF92CF92DF92EF92FF920F931F93CF9345
:1000D000DF936C017B018B01040F151FEB015E01A7
:1000E000AE18BF08C017D10759F06991D601ED913C
:1000F000FC910190F081E02DC6010995892B79F7DB
:10010000C501DF91CF911F910F91FF90EF90DF908C
:10011000CF90BF90AF900895FC01538D448D252F53
:1001200030E0842F90E0821B930B541710F0CF9691
:10013000089501970895FC01918D828D981761F0C3
:10014000A28DAE0FBF2FB11D5D968C91928D9F5FDA
:100150009F73928F90E008958FEF9FEF0895FC01B9
:10016000918D828D981731F0828DE80FF11D858D6C
:1001700090E008958FEF9FEF0895FC01918D228DFF
:10018000892F90E0805C9F4F821B91098F73992784
:1001900008958FE291E00E94BD0021E0892B09F4CF
:1001A00020E0822F089580E090E0892B29F00E94C2
:1001B000C90081110C9400000895FC01A48DA80FC2
:1001C000B92FB11DA35ABF4F2C91848D90E0019699
:1001D0008F739927848FA689B7892C93A089B189B9
:1001E0008C91837080648C93938D848D981306C05A
:1001F0000288F389E02D80818F7D80830895EF92BE
:10020000FF920F931F93CF93DF93EC0181E0888FD0
:100210009B8D8C8D98131AC0E889F989808185FFA0
:1002200015C09FB7F894EE89FF896083E889F98942
:1002300080818370806480839FBF81E090E0DF9144
:10024000CF911F910F91FF90EF900895F62E0B8D97
:1002500010E00F5F1F4F0F731127E02E8C8D8E1152
:100260000CC00FB607FCFACFE889F989808185FFB9
:10027000F5CFCE010E94DD00F1CFEB8DEC0FFD2F0D
:10028000F11DE35AFF4FF0829FB7F8940B8FEA8974
:10029000FB8980818062CFCFCF93DF93EC01888D83
:1002A0008823B9F0AA89BB89E889F9898C9185FDF1
:1002B00003C0808186FD0DC00FB607FCF7CF8C917F
:1002C00085FFF2CF808185FFEDCFCE010E94DD005A
:1002D000E9CFDF91CF9108953FB7F894809127013E
:1002E00090912801A0912901B0912A0126B5A89BDF
:1002F00005C02F3F19F00196A11DB11D3FBFBA2FB8
:10030000A92F982F8827BC01CD01620F711D811D77
:10031000911D42E0660F771F881F991F4A95D1F7FC
:10032000089542E050E068E171E08FE291E00C94C2
:100330005F000F931F93CF93DF93EC018881998126
:10034000009759F02A813B812617370730F081E06A
:10035000DF91CF911F910F9108958B016F5F7F4FB8
:100360000E948A05009759F0998388831B830A832A
:100370002C813D81232B59F7FC011082E8CF80E0CE
:10038000E7CF1F920F920FB60F9211242F933F9336
:100390004F935F936F937F938F939F93AF93BF938D
:1003A000EF93FF938FE291E00E94DD00FF91EF91C8
:1003B000BF91AF919F918F917F916F915F914F917D
:1003C0003F912F910F900FBE0F901F9018951F9285
:1003D0000F920FB60F9211242F938F939F93EF9349
:1003E000FF93E0913F01F09140018081E091450150
:1003F000F091460182FD1BC09081809148018F5F82
:100400008F7320914901821741F0E0914801F0E09B
:10041000E15DFE4F958F80934801FF91EF919F9191
:100420008F912F910F900FBE0F901F901895808184
:10043000F4CF1F920F920FB60F9211242F933F9378
:100440008F939F93AF93BF9380912B0190912C0139
:10045000A0912D01B0912E013091260123E0230FB0
:100460002D3758F50196A11DB11D209326018093CB
:100470002B0190932C01A0932D01B0932E0180911C
:10048000270190912801A0912901B0912A0101969C
:10049000A11DB11D8093270190932801A0932901EC
:1004A000B0932A01BF91AF919F918F913F912F916E
:1004B0000F900FBE0F901F90189526E8230F0296FD
:1004C000A11DB11DD2CFCF93DF93CDB7DEB7A797D4
:1004D0000FB6F894DEBF0FBECDBF789484B58260AE
:1004E00084BD84B5816084BD85B5826085BD85B5D8
:1004F000816085BD80916E00816080936E00109256
:1005000081008091810082608093810080918100D0
:100510008160809381008091800081608093800061
:100520008091B10084608093B1008091B0008160BF
:100530008093B00080917A00846080937A008091EB
:100540007A00826080937A0080917A008160809343
:100550007A0080917A00806880937A001092C100BE
:10056000E0913F01F091400182E08083E0913B0106
:10057000F0913C011082E0913D01F0913E018FEC41
:10058000808310924701E0914301F091440186E09D
:100590008083E0914101F0914201808180618083FC
:1005A000E0914101F0914201808188608083E09177
:1005B0004101F0914201808180688083E091410196
:1005C000F091420180818F7D808345E050E06BE1B6
:1005D00071E08FE291E00E945F000E9491018E0124
:1005E0000F5F1F4F90E0C92E90E0D92E2FB7F894DF
:1005F00060912B0170912C0180912D0190912E0121
:100600002FBF1BA21AA21DA21CA21FA21EA22AE07B
:10061000A8010E94F603F80101900020E9F7319744
:100620007F01E01AF10AB701CE0182960E9499017A
:100630002AA13BA181118FC02115310519F0C901F3
:100640000E9401051BA21AA21FA21EA21DA21CA28B
:100650001A8219821C821B821E821D8264E070E055
:10066000C8010E94990129813A8181117BC021151D
:10067000310519F0C9010E9401051A8219821E82F2
:100680001D821C821B82AAA0BBA0A114B10409F484
:1006900073C0EEA0FFA0E114F104B1F08D819E8142
:1006A000E80EF91EB701C8010E949901882309F4D8
:1006B00063C029813A818D819E81B501820F931F8C
:1006C0000E945006FE82ED824D815E8169817A81B1
:1006D0008FE291E00E945F000E94910189819A81DE
:1006E000009711F00E9401058AA19BA1009711F0CB
:1006F0000E9401050E946C014B015C0188EE482EAE
:1007000083E0582E612C712C0E946C0168197909C4
:100710008A099B09683E734081059105A8F321E091
:10072000421A51086108710888EE880E83E0981E0D
:10073000A11CB11C411451046104710429F7C114B6
:10074000D10409F453CF0E94C900882309F44ECF85
:100750000E9400004BCFFFA2EEA2B801C9010E9487
:10076000500676CF84E090E09E838D8361E271E055
:10077000C9010E94500687CF89819A81009711F0A4
:100780000E9401051A8219821E821D821C821B8210
:100790009BCFEFE2F1E01382128288EE93E0A0E0BB
:1007A000B0E084839583A683B7838AE091E0918348
:1007B000808385EC90E09587848784EC90E0978730
:1007C000868780EC90E0918B808B81EC90E0938B1E
:1007D000828B82EC90E0958B848B86EC90E0978BFB
:1007E000868B118E128E138E148E0895BB27FA01FC
:1007F000A62F6217710581059105330B30FB66F05A
:10080000AA27660F771F881F991FAA1FA21710F02B
:10081000A21B63953850A9F7A05DAA3308F0A95D23
:10082000A19336F7B111B1931082CA010C94180448
:10083000DC01FC01672F71917723E1F7329704C047
:100840007C916D9370836291AE17BF07C8F30895D2
:100850002F923F924F925F926F927F928F929F92D0
:10086000AF92BF92CF92DF92EF92FF920F931F93BE
:10087000CF93DF93CDB7DEB7CA1BDB0B0FB6F8946F
:10088000DEBF0FBECDBF09942A88398848885F84AF
:100890006E847D848C849B84AA84B984C884DF8020
:1008A000EE80FD800C811B81AA81B981CE0FD11D04
:1008B0000FB6F894DEBF0FBECDBFED010895EE0F69
:1008C000FF1F0590F491E02D09940F931F93CF9390
:1008D000DF938230910510F482E090E0E091CE0148
:1008E000F091CF0130E020E0B0E0A0E0309799F443
:1008F0002115310509F44AC0281B390B2430310574
:10090000D8F58A819B816115710589F1FB0193837B
:100910008283FE0111C040815181028113814817F9
:100920005907E0F04817590799F4109761F01296AB
:100930000C93129713961C933296CF01DF91CF91AF
:100940001F910F9108950093CE011093CF01F4CF22
:100950002115310551F04217530738F0A901DB0189
:100960009A01BD01DF01F801C1CFEF01F9CF9093EA
:10097000CF018093CE01CDCFFE01E20FF31F819313
:1009800091932250310939832883D7CF2091CC010C
:100990003091CD01232B41F42091020130910301CC
:1009A0003093CD012093CC012091000130910101C1
:1009B0002115310541F42DB73EB740910401509106
:1009C0000501241B350BE091CC01F091CD01E2171C
:1009D000F307A0F42E1B3F0B2817390778F0AC0162
:1009E0004E5F5F4F2417350748F04E0F5F1F50933F
:1009F000CD014093CC01819391939FCFF0E0E0E053
:100A00009CCFCF93DF930097E9F0FC0132971382DC
:100A10001282A091CE01B091CF01ED0130E020E033
:100A20001097A1F420813181820F931F2091CC0176
:100A30003091CD012817390709F061C0F093CD013D
:100A4000E093CC01DF91CF910895EA01CE17DF0743
:100A5000E8F54A815B819E0141155105B1F7E90135
:100A6000FB83EA8349915991C40FD51FEC17FD0709
:100A700061F4808191810296840F951FE901998329
:100A80008883828193819B838A83F0E0E0E01296E1
:100A90008D919C9113970097B9F52D913C911197E9
:100AA000CD010296820F931F2091CC013091CD0190
:100AB0002817390739F6309751F51092CF01109267
:100AC000CE01B093CD01A093CC01BCCFD383C28320
:100AD00040815181840F951FC817D90761F44E5F7B
:100AE0005F4F88819981480F591F518340838A81C4
:100AF0009B81938382832115310509F0B0CFF09358
:100B0000CF01E093CE019ECFFD01DC01C0CF138267
:100B10001282D7CFB0E0A0E0E0E9F5E00C942A041F
:100B20008C01009751F4CB010E9465048C01C8012F
:100B3000CDB7DEB7E0E10C944604FC01E60FF71FE9
:100B40009C0122503109E217F30708F49DC0D90136
:100B5000CD91DC911197C617D70798F0C530D10514
:100B600030F3CE0104978617970708F3C61BD70BFF
:100B70002297C193D1936D937C93CF010E9401057D
:100B8000D6CF5B01AC1ABD0A4C018C0E9D1EA09104
:100B9000CE01B091CF01512C412CF12CE12C1097BA
:100BA00031F58091CC019091CD018815990509F01E
:100BB0005CC04616570608F058C08091000190911D
:100BC0000101009741F48DB79EB740910401509107
:100BD0000501841B950BE817F90708F055C0F09341
:100BE000CD01E093CC01F90171836083A0CF8D9199
:100BF0009C91119712966C90129713967C90139774
:100C0000A815B90559F56C0142E0C40ED11CCA14EF
:100C1000DB0420F1AC014A195B09DA011296159741
:100C200080F06282738251834083D9016D937C93FB
:100C3000E114F10471F0D7011396FC93EE9312972F
:100C400076CF22968C0F9D1FF90191838083F3014B
:100C5000EFCFF093CF01E093CE0169CF481659064C
:100C600008F42C017D01D3019ACFCB010E946504C9
:100C70007C01009749F0AE01B8010E944706C80107
:100C80000E940105870153CF10E000E050CFFB0127
:100C9000DC0102C001900D9241505040D8F70895F8
:100CA000FB01DC0101900D920020E1F70895F8941A
:020CB000FFCF74
:100CB2000000D001800000000000FF005F008C00F7
:100CC2004C01BD009B00AF000D0A005374617274A9
:060CD200004C6F6F700082
:00000001FF
